{
  "contractName": "Ballot",
  "abi": [
    {
      "inputs": [],
      "stateMutability": "nonpayable",
      "type": "constructor"
    },
    {
      "inputs": [
        {
          "internalType": "uint256",
          "name": "",
          "type": "uint256"
        }
      ],
      "name": "candidates",
      "outputs": [
        {
          "internalType": "string",
          "name": "name",
          "type": "string"
        },
        {
          "internalType": "address",
          "name": "caaddress",
          "type": "address"
        },
        {
          "internalType": "uint256",
          "name": "voteCount",
          "type": "uint256"
        }
      ],
      "stateMutability": "view",
      "type": "function",
      "constant": true
    },
    {
      "inputs": [],
      "name": "chairperson",
      "outputs": [
        {
          "internalType": "address",
          "name": "",
          "type": "address"
        }
      ],
      "stateMutability": "view",
      "type": "function",
      "constant": true
    },
    {
      "inputs": [],
      "name": "state",
      "outputs": [
        {
          "internalType": "enum Ballot.State",
          "name": "",
          "type": "uint8"
        }
      ],
      "stateMutability": "view",
      "type": "function",
      "constant": true
    },
    {
      "inputs": [
        {
          "internalType": "address",
          "name": "",
          "type": "address"
        }
      ],
      "name": "voters",
      "outputs": [
        {
          "internalType": "uint256",
          "name": "weight",
          "type": "uint256"
        },
        {
          "internalType": "bool",
          "name": "voted",
          "type": "bool"
        },
        {
          "internalType": "address",
          "name": "vote",
          "type": "address"
        }
      ],
      "stateMutability": "view",
      "type": "function",
      "constant": true
    },
    {
      "inputs": [
        {
          "internalType": "address",
          "name": "candidateaddress",
          "type": "address"
        },
        {
          "internalType": "string",
          "name": "candidateName",
          "type": "string"
        }
      ],
      "name": "addCandidates",
      "outputs": [],
      "stateMutability": "payable",
      "type": "function",
      "payable": true
    },
    {
      "inputs": [],
      "name": "startVote",
      "outputs": [],
      "stateMutability": "nonpayable",
      "type": "function"
    },
    {
      "inputs": [],
      "name": "endVote",
      "outputs": [],
      "stateMutability": "nonpayable",
      "type": "function"
    },
    {
      "inputs": [
        {
          "internalType": "address",
          "name": "voter",
          "type": "address"
        }
      ],
      "name": "giveRightToVote",
      "outputs": [],
      "stateMutability": "nonpayable",
      "type": "function"
    },
    {
      "inputs": [
        {
          "internalType": "address",
          "name": "voter",
          "type": "address"
        }
      ],
      "name": "addVoter",
      "outputs": [],
      "stateMutability": "nonpayable",
      "type": "function"
    },
    {
      "inputs": [
        {
          "internalType": "address",
          "name": "candidate",
          "type": "address"
        },
        {
          "internalType": "address",
          "name": "voter",
          "type": "address"
        }
      ],
      "name": "vote",
      "outputs": [],
      "stateMutability": "nonpayable",
      "type": "function"
    },
    {
      "inputs": [],
      "name": "winningCandidate",
      "outputs": [
        {
          "components": [
            {
              "internalType": "string",
              "name": "name",
              "type": "string"
            },
            {
              "internalType": "address",
              "name": "caaddress",
              "type": "address"
            },
            {
              "internalType": "uint256",
              "name": "voteCount",
              "type": "uint256"
            }
          ],
          "internalType": "struct Ballot.Candidate[]",
          "name": "",
          "type": "tuple[]"
        }
      ],
      "stateMutability": "view",
      "type": "function",
      "constant": true
    }
  ],
  "bytecode": "0x608060405234801561001057600080fd5b50336000806101000a81548173ffffffffffffffffffffffffffffffffffffffff021916908373ffffffffffffffffffffffffffffffffffffffff1602179055506002600360006101000a81548160ff0219169083600281111561007757610076610081565b5b02179055506100b0565b7f4e487b7100000000000000000000000000000000000000000000000000000000600052602160045260246000fd5b611b76806100bf6000396000f3fe60806040526004361061009c5760003560e01c80639e7b8d61116100645780639e7b8d6114610167578063a3ec138d14610190578063b9223946146101cf578063c19d93fb146101e6578063d28178d714610211578063f4ab9adf1461023c5761009c565b80631afa74e5146100a15780632e4176cf146100ca5780633477ee2e146100f55780634c0a6af0146101345780637f6113491461014b575b600080fd5b3480156100ad57600080fd5b506100c860048036038101906100c3919061101f565b610265565b005b3480156100d657600080fd5b506100df6104fb565b6040516100ec919061106e565b60405180910390f35b34801561010157600080fd5b5061011c600480360381019061011791906110bf565b61051f565b60405161012b93929190611194565b60405180910390f35b34801561014057600080fd5b50610149610601565b005b61016560048036038101906101609190611307565b6106bc565b005b34801561017357600080fd5b5061018e60048036038101906101899190611363565b6108ee565b005b34801561019c57600080fd5b506101b760048036038101906101b29190611363565b610aa5565b6040516101c6939291906113ab565b60405180910390f35b3480156101db57600080fd5b506101e4610afc565b005b3480156101f257600080fd5b506101fb610bb7565b6040516102089190611459565b60405180910390f35b34801561021d57600080fd5b50610226610bca565b60405161023391906115ee565b60405180910390f35b34801561024857600080fd5b50610263600480360381019061025e9190611363565b610d90565b005b60016002811115610279576102786113e2565b5b600360009054906101000a900460ff16600281111561029b5761029a6113e2565b5b146102db576040517f08c379a00000000000000000000000000000000000000000000000000000000081526004016102d29061165c565b60405180910390fd5b6000600160008373ffffffffffffffffffffffffffffffffffffffff1673ffffffffffffffffffffffffffffffffffffffff1681526020019081526020016000209050600081600001541415610366576040517f08c379a000000000000000000000000000000000000000000000000000000000815260040161035d906116c8565b60405180910390fd5b8060010160009054906101000a900460ff16156103b8576040517f08c379a00000000000000000000000000000000000000000000000000000000081526004016103af90611734565b60405180910390fd5b60018160010160006101000a81548160ff02191690831515021790555060005b6002805490508110156104f5578373ffffffffffffffffffffffffffffffffffffffff16600282815481106104105761040f611754565b5b906000526020600020906003020160010160009054906101000a900473ffffffffffffffffffffffffffffffffffffffff1673ffffffffffffffffffffffffffffffffffffffff1614156104e257838260010160016101000a81548173ffffffffffffffffffffffffffffffffffffffff021916908373ffffffffffffffffffffffffffffffffffffffff1602179055508160000154600282815481106104ba576104b9611754565b5b906000526020600020906003020160020160008282546104da91906117b2565b925050819055505b80806104ed90611808565b9150506103d8565b50505050565b60008054906101000a900473ffffffffffffffffffffffffffffffffffffffff1681565b6002818154811061052f57600080fd5b906000526020600020906003020160009150905080600001805461055290611880565b80601f016020809104026020016040519081016040528092919081815260200182805461057e90611880565b80156105cb5780601f106105a0576101008083540402835291602001916105cb565b820191906000526020600020905b8154815290600101906020018083116105ae57829003601f168201915b5050505050908060010160009054906101000a900473ffffffffffffffffffffffffffffffffffffffff16908060020154905083565b60008054906101000a900473ffffffffffffffffffffffffffffffffffffffff1673ffffffffffffffffffffffffffffffffffffffff163373ffffffffffffffffffffffffffffffffffffffff161461068f576040517f08c379a000000000000000000000000000000000000000000000000000000000815260040161068690611924565b60405180910390fd5b6001600360006101000a81548160ff021916908360028111156106b5576106b46113e2565b5b0217905550565b6002808111156106cf576106ce6113e2565b5b600360009054906101000a900460ff1660028111156106f1576106f06113e2565b5b14610731576040517f08c379a000000000000000000000000000000000000000000000000000000000815260040161072890611990565b60405180910390fd5b60006001905060005b6002805490508110156107d8578373ffffffffffffffffffffffffffffffffffffffff166002828154811061077257610771611754565b5b906000526020600020906003020160010160009054906101000a900473ffffffffffffffffffffffffffffffffffffffff1673ffffffffffffffffffffffffffffffffffffffff1614156107c557600091505b80806107d090611808565b91505061073a565b506001811461081c576040517f08c379a000000000000000000000000000000000000000000000000000000000815260040161081390611a22565b60405180910390fd5b600260405180606001604052808481526020018573ffffffffffffffffffffffffffffffffffffffff168152602001600081525090806001815401808255809150506001900390600052602060002090600302016000909190919091506000820151816000019080519060200190610895929190610f0a565b5060208201518160010160006101000a81548173ffffffffffffffffffffffffffffffffffffffff021916908373ffffffffffffffffffffffffffffffffffffffff160217905550604082015181600201555050505050565b60008054906101000a900473ffffffffffffffffffffffffffffffffffffffff1673ffffffffffffffffffffffffffffffffffffffff163373ffffffffffffffffffffffffffffffffffffffff161461097c576040517f08c379a000000000000000000000000000000000000000000000000000000000815260040161097390611ab4565b60405180910390fd5b600160008273ffffffffffffffffffffffffffffffffffffffff1673ffffffffffffffffffffffffffffffffffffffff16815260200190815260200160002060010160009054906101000a900460ff1615610a0c576040517f08c379a0000000000000000000000000000000000000000000000000000000008152600401610a0390611b20565b60405180910390fd5b6000600160008373ffffffffffffffffffffffffffffffffffffffff1673ffffffffffffffffffffffffffffffffffffffff1681526020019081526020016000206000015414610a5b57600080fd5b60018060008373ffffffffffffffffffffffffffffffffffffffff1673ffffffffffffffffffffffffffffffffffffffff1681526020019081526020016000206000018190555050565b60016020528060005260406000206000915090508060000154908060010160009054906101000a900460ff16908060010160019054906101000a900473ffffffffffffffffffffffffffffffffffffffff16905083565b60008054906101000a900473ffffffffffffffffffffffffffffffffffffffff1673ffffffffffffffffffffffffffffffffffffffff163373ffffffffffffffffffffffffffffffffffffffff1614610b8a576040517f08c379a0000000000000000000000000000000000000000000000000000000008152600401610b8190611924565b60405180910390fd5b6002600360006101000a81548160ff02191690836002811115610bb057610baf6113e2565b5b0217905550565b600360009054906101000a900460ff1681565b6060600280811115610bdf57610bde6113e2565b5b600360009054906101000a900460ff166002811115610c0157610c006113e2565b5b14610c41576040517f08c379a0000000000000000000000000000000000000000000000000000000008152600401610c3890611990565b60405180910390fd5b6002805480602002602001604051908101604052809291908181526020016000905b82821015610d875783829060005260206000209060030201604051806060016040529081600082018054610c9690611880565b80601f0160208091040260200160405190810160405280929190818152602001828054610cc290611880565b8015610d0f5780601f10610ce457610100808354040283529160200191610d0f565b820191906000526020600020905b815481529060010190602001808311610cf257829003601f168201915b505050505081526020016001820160009054906101000a900473ffffffffffffffffffffffffffffffffffffffff1673ffffffffffffffffffffffffffffffffffffffff1673ffffffffffffffffffffffffffffffffffffffff16815260200160028201548152505081526020019060010190610c63565b50505050905090565b60008054906101000a900473ffffffffffffffffffffffffffffffffffffffff1673ffffffffffffffffffffffffffffffffffffffff163373ffffffffffffffffffffffffffffffffffffffff1614610e1e576040517f08c379a0000000000000000000000000000000000000000000000000000000008152600401610e1590611ab4565b60405180910390fd5b604051806060016040528060018152602001600015158152602001600073ffffffffffffffffffffffffffffffffffffffff16815250600160008373ffffffffffffffffffffffffffffffffffffffff1673ffffffffffffffffffffffffffffffffffffffff1681526020019081526020016000206000820151816000015560208201518160010160006101000a81548160ff02191690831515021790555060408201518160010160016101000a81548173ffffffffffffffffffffffffffffffffffffffff021916908373ffffffffffffffffffffffffffffffffffffffff16021790555090505050565b828054610f1690611880565b90600052602060002090601f016020900481019282610f385760008555610f7f565b82601f10610f5157805160ff1916838001178555610f7f565b82800160010185558215610f7f579182015b82811115610f7e578251825591602001919060010190610f63565b5b509050610f8c9190610f90565b5090565b5b80821115610fa9576000816000905550600101610f91565b5090565b6000604051905090565b600080fd5b600080fd5b600073ffffffffffffffffffffffffffffffffffffffff82169050919050565b6000610fec82610fc1565b9050919050565b610ffc81610fe1565b811461100757600080fd5b50565b60008135905061101981610ff3565b92915050565b6000806040838503121561103657611035610fb7565b5b60006110448582860161100a565b92505060206110558582860161100a565b9150509250929050565b61106881610fe1565b82525050565b6000602082019050611083600083018461105f565b92915050565b6000819050919050565b61109c81611089565b81146110a757600080fd5b50565b6000813590506110b981611093565b92915050565b6000602082840312156110d5576110d4610fb7565b5b60006110e3848285016110aa565b91505092915050565b600081519050919050565b600082825260208201905092915050565b60005b8381101561112657808201518184015260208101905061110b565b83811115611135576000848401525b50505050565b6000601f19601f8301169050919050565b6000611157826110ec565b61116181856110f7565b9350611171818560208601611108565b61117a8161113b565b840191505092915050565b61118e81611089565b82525050565b600060608201905081810360008301526111ae818661114c565b90506111bd602083018561105f565b6111ca6040830184611185565b949350505050565b600080fd5b600080fd5b7f4e487b7100000000000000000000000000000000000000000000000000000000600052604160045260246000fd5b6112148261113b565b810181811067ffffffffffffffff82111715611233576112326111dc565b5b80604052505050565b6000611246610fad565b9050611252828261120b565b919050565b600067ffffffffffffffff821115611272576112716111dc565b5b61127b8261113b565b9050602081019050919050565b82818337600083830152505050565b60006112aa6112a584611257565b61123c565b9050828152602081018484840111156112c6576112c56111d7565b5b6112d1848285611288565b509392505050565b600082601f8301126112ee576112ed6111d2565b5b81356112fe848260208601611297565b91505092915050565b6000806040838503121561131e5761131d610fb7565b5b600061132c8582860161100a565b925050602083013567ffffffffffffffff81111561134d5761134c610fbc565b5b611359858286016112d9565b9150509250929050565b60006020828403121561137957611378610fb7565b5b60006113878482850161100a565b91505092915050565b60008115159050919050565b6113a581611390565b82525050565b60006060820190506113c06000830186611185565b6113cd602083018561139c565b6113da604083018461105f565b949350505050565b7f4e487b7100000000000000000000000000000000000000000000000000000000600052602160045260246000fd5b60038110611422576114216113e2565b5b50565b600081905061143382611411565b919050565b600061144382611425565b9050919050565b61145381611438565b82525050565b600060208201905061146e600083018461144a565b92915050565b600081519050919050565b600082825260208201905092915050565b6000819050602082019050919050565b600082825260208201905092915050565b60006114bc826110ec565b6114c681856114a0565b93506114d6818560208601611108565b6114df8161113b565b840191505092915050565b6114f381610fe1565b82525050565b61150281611089565b82525050565b6000606083016000830151848203600086015261152582826114b1565b915050602083015161153a60208601826114ea565b50604083015161154d60408601826114f9565b508091505092915050565b60006115648383611508565b905092915050565b6000602082019050919050565b600061158482611474565b61158e818561147f565b9350836020820285016115a085611490565b8060005b858110156115dc57848403895281516115bd8582611558565b94506115c88361156c565b925060208a019950506001810190506115a4565b50829750879550505050505092915050565b600060208201905081810360008301526116088184611579565b905092915050565b7f6974206d75737420626520696e20566f74696e6720506572696f640000000000600082015250565b6000611646601b836110f7565b915061165182611610565b602082019050919050565b6000602082019050818103600083015261167581611639565b9050919050565b7f486173206e6f20726967687420746f20766f7465000000000000000000000000600082015250565b60006116b26014836110f7565b91506116bd8261167c565b602082019050919050565b600060208201905081810360008301526116e1816116a5565b9050919050565b7f416c726561647920766f7465642e000000000000000000000000000000000000600082015250565b600061171e600e836110f7565b9150611729826116e8565b602082019050919050565b6000602082019050818103600083015261174d81611711565b9050919050565b7f4e487b7100000000000000000000000000000000000000000000000000000000600052603260045260246000fd5b7f4e487b7100000000000000000000000000000000000000000000000000000000600052601160045260246000fd5b60006117bd82611089565b91506117c883611089565b9250827fffffffffffffffffffffffffffffffffffffffffffffffffffffffffffffffff038211156117fd576117fc611783565b5b828201905092915050565b600061181382611089565b91507fffffffffffffffffffffffffffffffffffffffffffffffffffffffffffffffff82141561184657611845611783565b5b600182019050919050565b7f4e487b7100000000000000000000000000000000000000000000000000000000600052602260045260246000fd5b6000600282049050600182168061189857607f821691505b602082108114156118ac576118ab611851565b5b50919050565b7f4f6e6c79206368616972706572736f6e2063616e20737461727420616e64206560008201527f6e642074686520766f74696e6700000000000000000000000000000000000000602082015250565b600061190e602d836110f7565b9150611919826118b2565b604082019050919050565b6000602082019050818103600083015261193d81611901565b9050919050565b7f6974206d75737420626520696e20456e64656420506572696f64000000000000600082015250565b600061197a601a836110f7565b915061198582611944565b602082019050919050565b600060208201905081810360008301526119a98161196d565b9050919050565b7f546869732063616e6469646174652068617320616c7265616479206265656e2060008201527f6164646564000000000000000000000000000000000000000000000000000000602082015250565b6000611a0c6025836110f7565b9150611a17826119b0565b604082019050919050565b60006020820190508181036000830152611a3b816119ff565b9050919050565b7f4f6e6c79206368616972706572736f6e2063616e20676976652072696768742060008201527f746f20766f74652e000000000000000000000000000000000000000000000000602082015250565b6000611a9e6028836110f7565b9150611aa982611a42565b604082019050919050565b60006020820190508181036000830152611acd81611a91565b9050919050565b7f54686520766f74657220616c726561647920766f7465642e0000000000000000600082015250565b6000611b0a6018836110f7565b9150611b1582611ad4565b602082019050919050565b60006020820190508181036000830152611b3981611afd565b905091905056fea2646970667358221220ae24720197d019740e081f7ed8b097b9ab7903509c3953ed89a257bfcd7adfc364736f6c634300080b0033",
  "immutableReferences": {},
  "source": "// SPDX-License-Identifier: GPL-3.0\r\n\r\npragma solidity >=0.7.0 <0.9.0;\r\npragma abicoder v2;\r\n\r\ncontract Ballot {\r\n   \r\n    struct Voter {\r\n        uint weight; // weight is accumulated by delegation\r\n        bool voted;  // if true, that person already voted\r\n        address vote;   // address of the candidate he voted for\r\n    }\r\n\r\n    struct Candidate {\r\n        string name;   // candidate name \r\n        address caaddress; //candidate address\r\n        uint voteCount; // number of accumulated votes\r\n    }\r\n\r\n    address public chairperson;\r\n\r\n    mapping(address => Voter) public voters;\r\n\r\n    Candidate[] public candidates;\r\n    \r\n    enum State { Created, Voting, Ended } // State of voting period\r\n    \r\n    State public state;\r\n\r\n    constructor() {\r\n        chairperson = msg.sender;\r\n        //voters[chairperson].weight = 1;\r\n        state = State.Ended;\r\n        \r\n        /*for (uint i = 0; i < candidateNames.length; i++) {\r\n            candidates.push(Candidate({\r\n                name: candidateNames[i],\r\n                voteCount: 0\r\n            }));\r\n            constructor(string[] memory candidateNames)\r\n        }*/\r\n    }\r\n    \r\n    // MODIFIERS\r\n    modifier onlySmartContractOwner() {\r\n        require(\r\n            msg.sender == chairperson,\r\n            \"Only chairperson can start and end the voting\"\r\n        );\r\n        _;\r\n    }\r\n    \r\n    /*modifier CreatedState() {\r\n        require(state == State.Created, \"it must be in Started\");\r\n        _;\r\n    }*/\r\n    \r\n    modifier VotingState() {\r\n        require(state == State.Voting, \"it must be in Voting Period\");\r\n        _;\r\n    }\r\n    \r\n    modifier EndedState() {\r\n        require(state == State.Ended, \"it must be in Ended Period\");\r\n        _;\r\n    }\r\n    \r\n    //add candidate\r\n    function addCandidates(address candidateaddress,string memory candidateName) \r\n        public \r\n        payable\r\n        EndedState\r\n    {\r\n        uint temp=1;\r\n        for (uint i = 0; i < candidates.length; i++)\r\n        {\r\n            if(candidates[i].caaddress==candidateaddress)\r\n            {\r\n                temp=0;\r\n            }\r\n        }\r\n        require(\r\n            temp==1,\r\n            \"This candidate has already been added\"\r\n        );\r\n        candidates.push(Candidate({\r\n            name: candidateName,\r\n            caaddress: candidateaddress,\r\n            voteCount: 0\r\n        }));\r\n    }\r\n    \r\n    // start vote\r\n    function startVote() \r\n        public\r\n        onlySmartContractOwner\r\n    {\r\n        state = State.Voting;\r\n    }\r\n    \r\n   //end vote\r\n    function endVote() \r\n        public \r\n        onlySmartContractOwner\r\n    {\r\n        state = State.Ended;\r\n    }\r\n    \r\n    \r\n    //right to vote\r\n    function giveRightToVote(address voter) public {\r\n        require(\r\n            msg.sender == chairperson,\r\n            \"Only chairperson can give right to vote.\"\r\n        );\r\n        require(\r\n            !voters[voter].voted,\r\n            \"The voter already voted.\"\r\n        );\r\n        require(voters[voter].weight == 0);\r\n        voters[voter].weight = 1;\r\n    }\r\n    \r\n    //to add voter\r\n    function addVoter(address voter) public{\r\n        require(\r\n            msg.sender == chairperson,\r\n            \"Only chairperson can give right to vote.\"\r\n        );\r\n        voters[voter]=Voter({weight:1,voted:false,vote:0x0000000000000000000000000000000000000000});\r\n    }\r\n\r\n    //vote\r\n    function vote(address candidate,address voter) \r\n        public\r\n        VotingState\r\n    {\r\n        Voter storage sender = voters[voter];\r\n        require(sender.weight != 0, \"Has no right to vote\");\r\n        require(!sender.voted, \"Already voted.\");\r\n        sender.voted = true;\r\n\r\n\r\n        for (uint i = 0; i < candidates.length; i++)\r\n        {\r\n            if(candidates[i].caaddress==candidate)\r\n            {\r\n                sender.vote = candidate;\r\n                candidates[i].voteCount += sender.weight;\r\n            }\r\n        }\r\n    }\r\n\r\n    //winning list\r\n    function winningCandidate() \r\n        public\r\n        view\r\n        EndedState\r\n        returns (Candidate[] memory )\r\n    { \r\n        return candidates;\r\n    }\r\n}",
  "sourcePath": "C:\\Users\\kalya\\Downloads\\Voting_blockchain\\contracts\\Voting.sol",
  "compiler": {
    "name": "solc",
    "version": "0.8.11+commit.d7f03943.Emscripten.clang"
  },
  "schemaVersion": "3.4.4",
  "updatedAt": "2022-04-29T01:53:09.188Z",
  "networkType": "ethereum",
  "devdoc": {
    "kind": "dev",
    "methods": {},
    "version": 1
  },
  "userdoc": {
    "kind": "user",
    "methods": {},
    "version": 1
  }
}