{
  "contractName": "Voting",
  "abi": [
    {
      "inputs": [
        {
          "internalType": "uint256",
          "name": "",
          "type": "uint256"
        }
      ],
      "name": "candidates",
      "outputs": [
        {
          "internalType": "string",
          "name": "name",
          "type": "string"
        },
        {
          "internalType": "address",
          "name": "candidateAddress",
          "type": "address"
        },
        {
          "internalType": "uint256",
          "name": "votes",
          "type": "uint256"
        }
      ],
      "stateMutability": "view",
      "type": "function",
      "constant": true
    },
    {
      "inputs": [],
      "name": "electionWinner",
      "outputs": [
        {
          "internalType": "string",
          "name": "",
          "type": "string"
        }
      ],
      "stateMutability": "view",
      "type": "function",
      "constant": true
    },
    {
      "inputs": [],
      "name": "electionWinnerAddress",
      "outputs": [
        {
          "internalType": "address",
          "name": "",
          "type": "address"
        }
      ],
      "stateMutability": "view",
      "type": "function",
      "constant": true
    },
    {
      "inputs": [
        {
          "internalType": "uint256",
          "name": "",
          "type": "uint256"
        }
      ],
      "name": "voters",
      "outputs": [
        {
          "internalType": "string",
          "name": "name",
          "type": "string"
        },
        {
          "internalType": "address",
          "name": "citizenAddress",
          "type": "address"
        },
        {
          "internalType": "address",
          "name": "vote",
          "type": "address"
        },
        {
          "internalType": "bool",
          "name": "didVote",
          "type": "bool"
        }
      ],
      "stateMutability": "view",
      "type": "function",
      "constant": true
    },
    {
      "inputs": [],
      "name": "winnerVotes",
      "outputs": [
        {
          "internalType": "uint256",
          "name": "",
          "type": "uint256"
        }
      ],
      "stateMutability": "view",
      "type": "function",
      "constant": true
    },
    {
      "inputs": [],
      "name": "Votes",
      "outputs": [],
      "stateMutability": "nonpayable",
      "type": "function"
    },
    {
      "inputs": [
        {
          "internalType": "address",
          "name": "_candidateAddress",
          "type": "address"
        }
      ],
      "name": "Vote",
      "outputs": [],
      "stateMutability": "nonpayable",
      "type": "function"
    },
    {
      "inputs": [],
      "name": "electionEnded",
      "outputs": [],
      "stateMutability": "nonpayable",
      "type": "function"
    },
    {
      "inputs": [
        {
          "internalType": "address",
          "name": "_address",
          "type": "address"
        },
        {
          "internalType": "string",
          "name": "_name",
          "type": "string"
        }
      ],
      "name": "addCandidate",
      "outputs": [],
      "stateMutability": "nonpayable",
      "type": "function"
    },
    {
      "inputs": [
        {
          "internalType": "address",
          "name": "_citizenAddress",
          "type": "address"
        },
        {
          "internalType": "string",
          "name": "_name",
          "type": "string"
        }
      ],
      "name": "addCitizen",
      "outputs": [],
      "stateMutability": "nonpayable",
      "type": "function"
    }
  ],
  "bytecode": "0x608060405234801561001057600080fd5b50611432806100206000396000f3fe608060405234801561001057600080fd5b506004361061009e5760003560e01c8063ad5022a511610066578063ad5022a514610149578063c94ca9e314610153578063da58c7d91461015d578063dacc2dc414610190578063f5b08346146101ae5761009e565b80630e58a249146100a35780633477ee2e146100c15780637b3a74c6146100f3578063809c6754146101115780639a594f061461012d575b600080fd5b6100ab6101ca565b6040516100b89190610ef0565b60405180910390f35b6100db60048036038101906100d69190610f5c565b610258565b6040516100ea93929190610fd9565b60405180910390f35b6100fb61033a565b6040516101089190611017565b60405180910390f35b61012b60048036038101906101269190611193565b610340565b005b61014760048036038101906101429190611193565b6104ea565b005b610151610676565b005b61015b6106b8565b005b61017760048036038101906101729190610f5c565b61085d565b604051610187949392919061120a565b60405180910390f35b610198610972565b6040516101a59190611256565b60405180910390f35b6101c860048036038101906101c39190611271565b610998565b005b600380546101d7906112cd565b80601f0160208091040260200160405190810160405280929190818152602001828054610203906112cd565b80156102505780601f1061022557610100808354040283529160200191610250565b820191906000526020600020905b81548152906001019060200180831161023357829003601f168201915b505050505081565b6005818154811061026857600080fd5b906000526020600020906003020160009150905080600001805461028b906112cd565b80601f01602080910402602001604051908101604052809291908181526020018280546102b7906112cd565b80156103045780601f106102d957610100808354040283529160200191610304565b820191906000526020600020905b8154815290600101906020018083116102e757829003601f168201915b5050505050908060010160009054906101000a900473ffffffffffffffffffffffffffffffffffffffff16908060020154905083565b60025481565b3373ffffffffffffffffffffffffffffffffffffffff1660008054906101000a900473ffffffffffffffffffffffffffffffffffffffff1673ffffffffffffffffffffffffffffffffffffffff1614156104e157600460405180608001604052808381526020018473ffffffffffffffffffffffffffffffffffffffff1681526020013373ffffffffffffffffffffffffffffffffffffffff168152602001600015158152509080600181540180825580915050600190039060005260206000209060030201600090919091909150600082015181600001908051906020019061042b929190610d27565b5060208201518160010160006101000a81548173ffffffffffffffffffffffffffffffffffffffff021916908373ffffffffffffffffffffffffffffffffffffffff16021790555060408201518160020160006101000a81548173ffffffffffffffffffffffffffffffffffffffff021916908373ffffffffffffffffffffffffffffffffffffffff16021790555060608201518160020160146101000a81548160ff02191690831515021790555050506104e6565b600080fd5b5050565b6000805b60048054905081101561058c576004818154811061050f5761050e6112ff565b5b906000526020600020906003020160010160009054906101000a900473ffffffffffffffffffffffffffffffffffffffff1673ffffffffffffffffffffffffffffffffffffffff163373ffffffffffffffffffffffffffffffffffffffff16141561057957600191505b80806105849061135d565b9150506104ee565b5060011515811515141561066c57600560405180606001604052808481526020018573ffffffffffffffffffffffffffffffffffffffff168152602001600081525090806001815401808255809150506001900390600052602060002090600302016000909190919091506000820151816000019080519060200190610613929190610d27565b5060208201518160010160006101000a81548173ffffffffffffffffffffffffffffffffffffffff021916908373ffffffffffffffffffffffffffffffffffffffff160217905550604082015181600201555050610671565b600080fd5b505050565b336000806101000a81548173ffffffffffffffffffffffffffffffffffffffff021916908373ffffffffffffffffffffffffffffffffffffffff160217905550565b3373ffffffffffffffffffffffffffffffffffffffff1660008054906101000a900473ffffffffffffffffffffffffffffffffffffffff1673ffffffffffffffffffffffffffffffffffffffff1614156108565760005b6005805490508110156108505760025460058281548110610733576107326112ff565b5b906000526020600020906003020160020154111561083d576005818154811061075f5761075e6112ff565b5b906000526020600020906003020160010160009054906101000a900473ffffffffffffffffffffffffffffffffffffffff16600160006101000a81548173ffffffffffffffffffffffffffffffffffffffff021916908373ffffffffffffffffffffffffffffffffffffffff160217905550600581815481106107e5576107e46112ff565b5b90600052602060002090600302016002015460028190555060058181548110610811576108106112ff565b5b90600052602060002090600302016000016003908054610830906112cd565b61083b929190610dad565b505b80806108489061135d565b91505061070f565b5061085b565b600080fd5b565b6004818154811061086d57600080fd5b9060005260206000209060030201600091509050806000018054610890906112cd565b80601f01602080910402602001604051908101604052809291908181526020018280546108bc906112cd565b80156109095780601f106108de57610100808354040283529160200191610909565b820191906000526020600020905b8154815290600101906020018083116108ec57829003601f168201915b5050505050908060010160009054906101000a900473ffffffffffffffffffffffffffffffffffffffff16908060020160009054906101000a900473ffffffffffffffffffffffffffffffffffffffff16908060020160149054906101000a900460ff16905084565b600160009054906101000a900473ffffffffffffffffffffffffffffffffffffffff1681565b6000805b600480549050811015610a3a57600481815481106109bd576109bc6112ff565b5b906000526020600020906003020160010160009054906101000a900473ffffffffffffffffffffffffffffffffffffffff1673ffffffffffffffffffffffffffffffffffffffff163373ffffffffffffffffffffffffffffffffffffffff161415610a2757600191505b8080610a329061135d565b91505061099c565b50600115158115151415610d1e576000805b600480549050811015610d01573373ffffffffffffffffffffffffffffffffffffffff1660048281548110610a8457610a836112ff565b5b906000526020600020906003020160010160009054906101000a900473ffffffffffffffffffffffffffffffffffffffff1673ffffffffffffffffffffffffffffffffffffffff16148015610b0f57506000151560048281548110610aec57610aeb6112ff565b5b906000526020600020906003020160020160149054906101000a900460ff161515145b15610ca5578360048281548110610b2957610b286112ff565b5b906000526020600020906003020160020160006101000a81548173ffffffffffffffffffffffffffffffffffffffff021916908373ffffffffffffffffffffffffffffffffffffffff160217905550600160048281548110610b8e57610b8d6112ff565b5b906000526020600020906003020160020160146101000a81548160ff021916908315150217905550600182610bc391906113a6565b915060005b600580549050811015610c9f578473ffffffffffffffffffffffffffffffffffffffff1660058281548110610c0057610bff6112ff565b5b906000526020600020906003020160010160009054906101000a900473ffffffffffffffffffffffffffffffffffffffff1673ffffffffffffffffffffffffffffffffffffffff161415610c8c57600160058281548110610c6457610c636112ff565b5b90600052602060002090600302016002016000828254610c8491906113a6565b925050819055505b8080610c979061135d565b915050610bc8565b50610cee565b60048181548110610cb957610cb86112ff565b5b906000526020600020906003020160020160149054906101000a900460ff1615610ced57600182610cea91906113a6565b91505b5b8080610cf99061135d565b915050610a4c565b50600480549050811415610d1857610d176106b8565b5b50610d23565b600080fd5b5050565b828054610d33906112cd565b90600052602060002090601f016020900481019282610d555760008555610d9c565b82601f10610d6e57805160ff1916838001178555610d9c565b82800160010185558215610d9c579182015b82811115610d9b578251825591602001919060010190610d80565b5b509050610da99190610e3a565b5090565b828054610db9906112cd565b90600052602060002090601f016020900481019282610ddb5760008555610e29565b82601f10610dec5780548555610e29565b82800160010185558215610e2957600052602060002091601f016020900482015b82811115610e28578254825591600101919060010190610e0d565b5b509050610e369190610e3a565b5090565b5b80821115610e53576000816000905550600101610e3b565b5090565b600081519050919050565b600082825260208201905092915050565b60005b83811015610e91578082015181840152602081019050610e76565b83811115610ea0576000848401525b50505050565b6000601f19601f8301169050919050565b6000610ec282610e57565b610ecc8185610e62565b9350610edc818560208601610e73565b610ee581610ea6565b840191505092915050565b60006020820190508181036000830152610f0a8184610eb7565b905092915050565b6000604051905090565b600080fd5b600080fd5b6000819050919050565b610f3981610f26565b8114610f4457600080fd5b50565b600081359050610f5681610f30565b92915050565b600060208284031215610f7257610f71610f1c565b5b6000610f8084828501610f47565b91505092915050565b600073ffffffffffffffffffffffffffffffffffffffff82169050919050565b6000610fb482610f89565b9050919050565b610fc481610fa9565b82525050565b610fd381610f26565b82525050565b60006060820190508181036000830152610ff38186610eb7565b90506110026020830185610fbb565b61100f6040830184610fca565b949350505050565b600060208201905061102c6000830184610fca565b92915050565b61103b81610fa9565b811461104657600080fd5b50565b60008135905061105881611032565b92915050565b600080fd5b600080fd5b7f4e487b7100000000000000000000000000000000000000000000000000000000600052604160045260246000fd5b6110a082610ea6565b810181811067ffffffffffffffff821117156110bf576110be611068565b5b80604052505050565b60006110d2610f12565b90506110de8282611097565b919050565b600067ffffffffffffffff8211156110fe576110fd611068565b5b61110782610ea6565b9050602081019050919050565b82818337600083830152505050565b6000611136611131846110e3565b6110c8565b90508281526020810184848401111561115257611151611063565b5b61115d848285611114565b509392505050565b600082601f83011261117a5761117961105e565b5b813561118a848260208601611123565b91505092915050565b600080604083850312156111aa576111a9610f1c565b5b60006111b885828601611049565b925050602083013567ffffffffffffffff8111156111d9576111d8610f21565b5b6111e585828601611165565b9150509250929050565b60008115159050919050565b611204816111ef565b82525050565b600060808201905081810360008301526112248187610eb7565b90506112336020830186610fbb565b6112406040830185610fbb565b61124d60608301846111fb565b95945050505050565b600060208201905061126b6000830184610fbb565b92915050565b60006020828403121561128757611286610f1c565b5b600061129584828501611049565b91505092915050565b7f4e487b7100000000000000000000000000000000000000000000000000000000600052602260045260246000fd5b600060028204905060018216806112e557607f821691505b602082108114156112f9576112f861129e565b5b50919050565b7f4e487b7100000000000000000000000000000000000000000000000000000000600052603260045260246000fd5b7f4e487b7100000000000000000000000000000000000000000000000000000000600052601160045260246000fd5b600061136882610f26565b91507fffffffffffffffffffffffffffffffffffffffffffffffffffffffffffffffff82141561139b5761139a61132e565b5b600182019050919050565b60006113b182610f26565b91506113bc83610f26565b9250827fffffffffffffffffffffffffffffffffffffffffffffffffffffffffffffffff038211156113f1576113f061132e565b5b82820190509291505056fea2646970667358221220d4be77697b1ab1f3a2d37461d873ca10d8c8248752cc8a624762201ce0e297a364736f6c634300080b0033",
  "immutableReferences": {},
  "source": "pragma solidity >=0.4.22 <0.9.0;\r\n\r\ncontract Voting {\r\n    address owner;\r\n    \r\n    address public electionWinnerAddress;\r\n    uint public winnerVotes;\r\n    string public electionWinner;\r\n    \r\n    Citizen[] public voters;\r\n    Candidate[] public candidates;\r\n\r\n    struct Citizen {\r\n        string name;\r\n        address citizenAddress;\r\n        address vote;\r\n        bool didVote;\r\n    }\r\n    \r\n    struct Candidate {\r\n        string name;\r\n        address candidateAddress;\r\n        uint votes;\r\n    }\r\n\r\n    function Votes() public {\r\n        owner = msg.sender;\r\n    }\r\n\r\n    modifier onlyOwner() {\r\n        if(owner == msg.sender) {\r\n            _;\r\n        } else {\r\n            revert();\r\n        }\r\n    }\r\n\r\n    modifier onlyCitizen() {\r\n        bool isCitizen = false;\r\n        for(uint i = 0; i < voters.length; i++) {\r\n            if(msg.sender == voters[i].citizenAddress) {\r\n                isCitizen = true;\r\n            }\r\n        }\r\n        if(isCitizen == true) {\r\n            _;\r\n        } else {\r\n            revert();\r\n        }\r\n    }\r\n    \r\n    \r\n    function Vote(address _candidateAddress) onlyCitizen public{\r\n        uint amountOfVotes = 0;\r\n        for(uint i = 0; i < voters.length; i++) {\r\n            if(voters[i].citizenAddress == msg.sender && voters[i].didVote == false) {\r\n                voters[i].vote = _candidateAddress;\r\n                voters[i].didVote = true;\r\n                amountOfVotes += 1;\r\n                for(uint j = 0; j < candidates.length; j++) {\r\n                    if(candidates[j].candidateAddress == _candidateAddress) {\r\n                        candidates[j].votes += 1;\r\n                    }\r\n                }\r\n            } else {\r\n                if(voters[i].didVote) {\r\n                    amountOfVotes += 1;\r\n                }\r\n            }\r\n        }\r\n        if(amountOfVotes == voters.length) {\r\n            electionEnded();\r\n        }\r\n    }\r\n    \r\n    function electionEnded() onlyOwner public {\r\n        for(uint i = 0; i < candidates.length; i++) {\r\n            if(candidates[i].votes > winnerVotes) {\r\n                electionWinnerAddress = candidates[i].candidateAddress;\r\n                winnerVotes = candidates[i].votes;\r\n                electionWinner = candidates[i].name;\r\n            }\r\n        }\r\n    }\r\n    \r\n    function addCandidate(address _address, string memory _name) onlyCitizen public{\r\n        candidates.push(Candidate({\r\n\t\t\t\tname: _name,\r\n\t\t\t\tcandidateAddress: _address,\r\n\t\t\t\tvotes: 0\r\n\t\t\t}));\r\n    }\r\n    \r\n    function addCitizen(address _citizenAddress, string memory _name) onlyOwner public {\r\n        voters.push(Citizen({\r\n\t\t\t\tname: _name,\r\n\t\t\t\tcitizenAddress: _citizenAddress,\r\n\t\t\t\tvote: msg.sender,\r\n\t\t\t\tdidVote: false\r\n\t\t\t}));\r\n    }\r\n    \r\n    \r\n    \r\n}",
  "sourcePath": "C:\\Users\\kalya\\Downloads\\Voting_blockchain\\contracts\\Voting.sol",
  "compiler": {
    "name": "solc",
    "version": "0.8.11+commit.d7f03943.Emscripten.clang"
  },
  "schemaVersion": "3.4.4",
  "updatedAt": "2022-04-16T07:18:21.271Z",
  "networkType": "ethereum",
  "devdoc": {
    "kind": "dev",
    "methods": {},
    "version": 1
  },
  "userdoc": {
    "kind": "user",
    "methods": {},
    "version": 1
  }
}